{
  "_format": "hh-sol-artifact-1",
  "contractName": "EscrowContract",
  "sourceName": "contracts/Escrow.sol",
  "abi": [
    {
      "inputs": [
        {
          "internalType": "address",
          "name": "addressChainAccount",
          "type": "address"
        }
      ],
      "stateMutability": "nonpayable",
      "type": "constructor"
    },
    {
      "anonymous": false,
      "inputs": [
        {
          "indexed": true,
          "internalType": "string",
          "name": "message",
          "type": "string"
        },
        {
          "indexed": true,
          "internalType": "uint256",
          "name": "escrowId",
          "type": "uint256"
        }
      ],
      "name": "AllConsented",
      "type": "event"
    },
    {
      "anonymous": false,
      "inputs": [
        {
          "indexed": true,
          "internalType": "address",
          "name": "sender",
          "type": "address"
        },
        {
          "indexed": true,
          "internalType": "uint256",
          "name": "escrowId",
          "type": "uint256"
        }
      ],
      "name": "ConsentToEscrow",
      "type": "event"
    },
    {
      "anonymous": false,
      "inputs": [
        {
          "indexed": true,
          "internalType": "address",
          "name": "sender",
          "type": "address"
        },
        {
          "indexed": false,
          "internalType": "uint256",
          "name": "escrowId",
          "type": "uint256"
        }
      ],
      "name": "ConsentWithdrawn",
      "type": "event"
    },
    {
      "anonymous": false,
      "inputs": [
        {
          "indexed": true,
          "internalType": "uint256",
          "name": "escrowId",
          "type": "uint256"
        },
        {
          "indexed": true,
          "internalType": "uint256",
          "name": "amount",
          "type": "uint256"
        }
      ],
      "name": "DepositedInEscrow",
      "type": "event"
    },
    {
      "anonymous": false,
      "inputs": [
        {
          "indexed": true,
          "internalType": "uint256",
          "name": "escrowId",
          "type": "uint256"
        },
        {
          "indexed": true,
          "internalType": "uint256",
          "name": "amountApproved",
          "type": "uint256"
        }
      ],
      "name": "Executed",
      "type": "event"
    },
    {
      "anonymous": false,
      "inputs": [
        {
          "indexed": true,
          "internalType": "uint256",
          "name": "escrowId",
          "type": "uint256"
        },
        {
          "indexed": true,
          "internalType": "uint256",
          "name": "escrowAmount",
          "type": "uint256"
        }
      ],
      "name": "FullyFunded",
      "type": "event"
    },
    {
      "anonymous": false,
      "inputs": [
        {
          "indexed": true,
          "internalType": "address",
          "name": "sender",
          "type": "address"
        },
        {
          "indexed": true,
          "internalType": "uint256",
          "name": "escrowId",
          "type": "uint256"
        }
      ],
      "name": "ProposalWithdrawn",
      "type": "event"
    },
    {
      "anonymous": false,
      "inputs": [
        {
          "indexed": true,
          "internalType": "address",
          "name": "proposer",
          "type": "address"
        },
        {
          "indexed": true,
          "internalType": "uint256",
          "name": "escrowId",
          "type": "uint256"
        }
      ],
      "name": "ProposedEscrow",
      "type": "event"
    },
    {
      "inputs": [
        {
          "internalType": "uint256",
          "name": "escrowId",
          "type": "uint256"
        }
      ],
      "name": "allConsented",
      "outputs": [
        {
          "internalType": "bool",
          "name": "",
          "type": "bool"
        }
      ],
      "stateMutability": "view",
      "type": "function"
    },
    {
      "inputs": [
        {
          "internalType": "uint256",
          "name": "escrowId",
          "type": "uint256"
        }
      ],
      "name": "consentToEscrow",
      "outputs": [],
      "stateMutability": "nonpayable",
      "type": "function"
    },
    {
      "inputs": [
        {
          "internalType": "address",
          "name": "",
          "type": "address"
        },
        {
          "internalType": "uint256",
          "name": "",
          "type": "uint256"
        }
      ],
      "name": "consents",
      "outputs": [
        {
          "internalType": "bool",
          "name": "",
          "type": "bool"
        }
      ],
      "stateMutability": "view",
      "type": "function"
    },
    {
      "inputs": [
        {
          "internalType": "address",
          "name": "depositor",
          "type": "address"
        },
        {
          "internalType": "uint256",
          "name": "amount",
          "type": "uint256"
        },
        {
          "internalType": "uint256",
          "name": "escrowId",
          "type": "uint256"
        }
      ],
      "name": "depositInEscrow",
      "outputs": [],
      "stateMutability": "nonpayable",
      "type": "function"
    },
    {
      "inputs": [
        {
          "internalType": "uint256",
          "name": "",
          "type": "uint256"
        }
      ],
      "name": "escrowArray",
      "outputs": [
        {
          "internalType": "address",
          "name": "proposer",
          "type": "address"
        },
        {
          "internalType": "address",
          "name": "depositor",
          "type": "address"
        },
        {
          "internalType": "address",
          "name": "beneficiary",
          "type": "address"
        },
        {
          "internalType": "address",
          "name": "arbiter",
          "type": "address"
        },
        {
          "internalType": "uint256",
          "name": "escrowAmount",
          "type": "uint256"
        },
        {
          "internalType": "uint256",
          "name": "heldInDeposit",
          "type": "uint256"
        },
        {
          "internalType": "uint256",
          "name": "escrowId",
          "type": "uint256"
        },
        {
          "internalType": "enum EscrowContract.EscrowStatus",
          "name": "status",
          "type": "uint8"
        }
      ],
      "stateMutability": "view",
      "type": "function"
    },
    {
      "inputs": [
        {
          "internalType": "uint256",
          "name": "escrowId",
          "type": "uint256"
        },
        {
          "internalType": "uint256",
          "name": "approvedAmount",
          "type": "uint256"
        }
      ],
      "name": "executeEscrow",
      "outputs": [],
      "stateMutability": "nonpayable",
      "type": "function"
    },
    {
      "inputs": [
        {
          "internalType": "uint256",
          "name": "escrowId",
          "type": "uint256"
        }
      ],
      "name": "getConsents",
      "outputs": [
        {
          "internalType": "address[3]",
          "name": "",
          "type": "address[3]"
        }
      ],
      "stateMutability": "view",
      "type": "function"
    },
    {
      "inputs": [
        {
          "internalType": "uint256",
          "name": "escrowId",
          "type": "uint256"
        }
      ],
      "name": "getEscrowProposal",
      "outputs": [
        {
          "components": [
            {
              "internalType": "address",
              "name": "proposer",
              "type": "address"
            },
            {
              "internalType": "address",
              "name": "depositor",
              "type": "address"
            },
            {
              "internalType": "address",
              "name": "beneficiary",
              "type": "address"
            },
            {
              "internalType": "address",
              "name": "arbiter",
              "type": "address"
            },
            {
              "internalType": "uint256",
              "name": "escrowAmount",
              "type": "uint256"
            },
            {
              "internalType": "uint256",
              "name": "heldInDeposit",
              "type": "uint256"
            },
            {
              "internalType": "uint256",
              "name": "escrowId",
              "type": "uint256"
            },
            {
              "internalType": "enum EscrowContract.EscrowStatus",
              "name": "status",
              "type": "uint8"
            }
          ],
          "internalType": "struct EscrowContract.Escrow",
          "name": "",
          "type": "tuple"
        }
      ],
      "stateMutability": "view",
      "type": "function"
    },
    {
      "inputs": [
        {
          "internalType": "uint256",
          "name": "escrowId",
          "type": "uint256"
        }
      ],
      "name": "getParties",
      "outputs": [
        {
          "internalType": "address[3]",
          "name": "",
          "type": "address[3]"
        }
      ],
      "stateMutability": "view",
      "type": "function"
    },
    {
      "inputs": [
        {
          "internalType": "uint256",
          "name": "escrowId",
          "type": "uint256"
        }
      ],
      "name": "isParty",
      "outputs": [
        {
          "internalType": "bool",
          "name": "",
          "type": "bool"
        }
      ],
      "stateMutability": "view",
      "type": "function"
    },
    {
      "inputs": [],
      "name": "numberOfParties",
      "outputs": [
        {
          "internalType": "uint256",
          "name": "",
          "type": "uint256"
        }
      ],
      "stateMutability": "view",
      "type": "function"
    },
    {
      "inputs": [],
      "name": "owner",
      "outputs": [
        {
          "internalType": "address",
          "name": "",
          "type": "address"
        }
      ],
      "stateMutability": "view",
      "type": "function"
    },
    {
      "inputs": [
        {
          "internalType": "uint256",
          "name": "",
          "type": "uint256"
        },
        {
          "internalType": "uint256",
          "name": "",
          "type": "uint256"
        }
      ],
      "name": "parties",
      "outputs": [
        {
          "internalType": "address",
          "name": "",
          "type": "address"
        }
      ],
      "stateMutability": "view",
      "type": "function"
    },
    {
      "inputs": [
        {
          "internalType": "address",
          "name": "_depositor",
          "type": "address"
        },
        {
          "internalType": "address",
          "name": "_beneficiary",
          "type": "address"
        },
        {
          "internalType": "address",
          "name": "_arbiter",
          "type": "address"
        },
        {
          "internalType": "uint256",
          "name": "_escrowAmount",
          "type": "uint256"
        }
      ],
      "name": "proposeEscrow",
      "outputs": [],
      "stateMutability": "nonpayable",
      "type": "function"
    },
    {
      "inputs": [
        {
          "internalType": "uint256",
          "name": "escrowId",
          "type": "uint256"
        }
      ],
      "name": "withdrawConsent",
      "outputs": [],
      "stateMutability": "nonpayable",
      "type": "function"
    },
    {
      "inputs": [
        {
          "internalType": "uint256",
          "name": "escrowId",
          "type": "uint256"
        }
      ],
      "name": "withdrawProposal",
      "outputs": [],
      "stateMutability": "nonpayable",
      "type": "function"
    }
  ],
  "bytecode": "0x60806040523480156200001157600080fd5b50604051620041a6380380620041a68339818101604052810190620000379190620000d6565b806000806101000a81548173ffffffffffffffffffffffffffffffffffffffff021916908373ffffffffffffffffffffffffffffffffffffffff16021790555033600160006101000a81548173ffffffffffffffffffffffffffffffffffffffff021916908373ffffffffffffffffffffffffffffffffffffffff1602179055505062000150565b600081519050620000d08162000136565b92915050565b600060208284031215620000e957600080fd5b6000620000f984828501620000bf565b91505092915050565b60006200010f8262000116565b9050919050565b600073ffffffffffffffffffffffffffffffffffffffff82169050919050565b620001418162000102565b81146200014d57600080fd5b50565b61404680620001606000396000f3fe608060405234801561001057600080fd5b50600436106101005760003560e01c806392376e4411610097578063c4dd64b211610066578063c4dd64b2146102d8578063caea402314610308578063e1f02ffa14610338578063faff5cab1461035457610100565b806392376e441461024b578063b16622c614610282578063b2592e70146102a0578063c0037b3c146102bc57610100565b80634faf1dd2116100d35780634faf1dd21461019d57806352554a78146101cd5780638c5f9170146101fd5780638da5cb5b1461022d57610100565b8063129ffc9014610105578063447fe2891461012157806346cd876e1461015157806347b6d41814610181575b600080fd5b61011f600480360381019061011a9190612f89565b610370565b005b61013b60048036038101906101369190613001565b610d73565b60405161014891906135d3565b60405180910390f35b61016b60048036038101906101669190613001565b610e07565b6040516101789190613869565b60405180910390f35b61019b60048036038101906101969190613053565b611067565b005b6101b760048036038101906101b29190612f4d565b611a44565b6040516101c491906135ee565b60405180910390f35b6101e760048036038101906101e29190613053565b611a73565b6040516101f491906134da565b60405180910390f35b61021760048036038101906102129190613001565b611ab8565b60405161022491906135ee565b60405180910390f35b610235611ba5565b60405161024291906134da565b60405180910390f35b61026560048036038101906102609190613001565b611bcb565b6040516102799897969594939291906134f5565b60405180910390f35b61028a611cb0565b6040516102979190613885565b60405180910390f35b6102ba60048036038101906102b59190613001565b611cb5565b005b6102d660048036038101906102d19190613001565b612047565b005b6102f260048036038101906102ed9190613001565b6122f1565b6040516102ff91906135ee565b60405180910390f35b610322600480360381019061031d9190613001565b612414565b60405161032f91906135d3565b60405180910390f35b610352600480360381019061034d9190613001565b612629565b005b61036e60048036038101906103699190612eea565b612957565b005b600073ffffffffffffffffffffffffffffffffffffffff16600282815481106103c2577f4e487b7100000000000000000000000000000000000000000000000000000000600052603260045260246000fd5b906000526020600020906008020160030160009054906101000a900473ffffffffffffffffffffffffffffffffffffffff1673ffffffffffffffffffffffffffffffffffffffff16141580156104b05750600073ffffffffffffffffffffffffffffffffffffffff1660028281548110610465577f4e487b7100000000000000000000000000000000000000000000000000000000600052603260045260246000fd5b906000526020600020906008020160020160009054906101000a900473ffffffffffffffffffffffffffffffffffffffff1673ffffffffffffffffffffffffffffffffffffffff1614155b6104ef576040517f08c379a00000000000000000000000000000000000000000000000000000000081526004016104e690613729565b60405180910390fd5b60016004811115610529577f4e487b7100000000000000000000000000000000000000000000000000000000600052602160045260246000fd5b60028281548110610563577f4e487b7100000000000000000000000000000000000000000000000000000000600052603260045260246000fd5b906000526020600020906008020160070160009054906101000a900460ff1660048111156105ba577f4e487b7100000000000000000000000000000000000000000000000000000000600052602160045260246000fd5b1480156106905750600260048111156105fc577f4e487b7100000000000000000000000000000000000000000000000000000000600052602160045260246000fd5b60028281548110610636577f4e487b7100000000000000000000000000000000000000000000000000000000600052603260045260246000fd5b906000526020600020906008020160070160009054906101000a900460ff16600481111561068d577f4e487b7100000000000000000000000000000000000000000000000000000000600052602160045260246000fd5b14155b6106cf576040517f08c379a00000000000000000000000000000000000000000000000000000000081526004016106c690613849565b60405180910390fd5b6064826002838154811061070c577f4e487b7100000000000000000000000000000000000000000000000000000000600052603260045260246000fd5b90600052602060002090600802016005015461072891906138e9565b610732919061393f565b60696002838154811061076e577f4e487b7100000000000000000000000000000000000000000000000000000000600052603260045260246000fd5b90600052602060002090600802016004015461078a919061393f565b116107ca576040517f08c379a00000000000000000000000000000000000000000000000000000000081526004016107c190613689565b60405180910390fd5b60008060009054906101000a900473ffffffffffffffffffffffffffffffffffffffff1673ffffffffffffffffffffffffffffffffffffffff166323b872dd8530866040518463ffffffff1660e01b815260040161082a93929190613573565b602060405180830381600087803b15801561084457600080fd5b505af1158015610858573d6000803e3d6000fd5b505050506040513d601f19601f8201168201806040525081019061087c9190612fd8565b9050806108be576040517f08c379a00000000000000000000000000000000000000000000000000000000081526004016108b590613789565b60405180910390fd5b82600283815481106108f9577f4e487b7100000000000000000000000000000000000000000000000000000000600052603260045260246000fd5b9060005260206000209060080201600501600082825461091991906138e9565b9250508190555082827f14e4e5396fe82dfe88bb07a4c12b60412294006ed489558f505799871f291f1e60405160405180910390a360028281548110610988577f4e487b7100000000000000000000000000000000000000000000000000000000600052603260045260246000fd5b906000526020600020906008020160040154600283815481106109d4577f4e487b7100000000000000000000000000000000000000000000000000000000600052603260045260246000fd5b90600052602060002090600802016005015410610d6d576002808381548110610a26577f4e487b7100000000000000000000000000000000000000000000000000000000600052603260045260246000fd5b906000526020600020906008020160070160006101000a81548160ff02191690836004811115610a7f577f4e487b7100000000000000000000000000000000000000000000000000000000600052602160045260246000fd5b021790555060028281548110610abe577f4e487b7100000000000000000000000000000000000000000000000000000000600052603260045260246000fd5b906000526020600020906008020160040154827fb21deb796f472a37fa365a1c3d469d8d25f1281313f378f8e9a52f0e9ee443e360405160405180910390a360008060009054906101000a900473ffffffffffffffffffffffffffffffffffffffff1673ffffffffffffffffffffffffffffffffffffffff166370a08231306040518263ffffffff1660e01b8152600401610b5991906134da565b60206040518083038186803b158015610b7157600080fd5b505afa158015610b85573d6000803e3d6000fd5b505050506040513d601f19601f82011682018060405250810190610ba9919061302a565b9050600060028481548110610be7577f4e487b7100000000000000000000000000000000000000000000000000000000600052603260045260246000fd5b90600052602060002090600802016004015460028581548110610c33577f4e487b7100000000000000000000000000000000000000000000000000000000600052603260045260246000fd5b906000526020600020906008020160050154610c4f9190613999565b905080821115610d6a5760008054906101000a900473ffffffffffffffffffffffffffffffffffffffff1673ffffffffffffffffffffffffffffffffffffffff1663a9059cbb87836040518363ffffffff1660e01b8152600401610cb49291906135aa565b602060405180830381600087803b158015610cce57600080fd5b505af1158015610ce2573d6000803e3d6000fd5b505050506040513d601f19601f82011682018060405250810190610d069190612fd8565b508060028581548110610d42577f4e487b7100000000000000000000000000000000000000000000000000000000600052603260045260246000fd5b90600052602060002090600802016005016000828254610d629190613999565b925050819055505b50505b50505050565b610d7b612d05565b60046000838152602001908152602001600020600380602002604051908101604052809291908260038015610dfb576020028201915b8160009054906101000a900473ffffffffffffffffffffffffffffffffffffffff1673ffffffffffffffffffffffffffffffffffffffff1681526020019060010190808311610db1575b50505050509050919050565b610e0f612d27565b60028281548110610e49577f4e487b7100000000000000000000000000000000000000000000000000000000600052603260045260246000fd5b9060005260206000209060080201604051806101000160405290816000820160009054906101000a900473ffffffffffffffffffffffffffffffffffffffff1673ffffffffffffffffffffffffffffffffffffffff1673ffffffffffffffffffffffffffffffffffffffff1681526020016001820160009054906101000a900473ffffffffffffffffffffffffffffffffffffffff1673ffffffffffffffffffffffffffffffffffffffff1673ffffffffffffffffffffffffffffffffffffffff1681526020016002820160009054906101000a900473ffffffffffffffffffffffffffffffffffffffff1673ffffffffffffffffffffffffffffffffffffffff1673ffffffffffffffffffffffffffffffffffffffff1681526020016003820160009054906101000a900473ffffffffffffffffffffffffffffffffffffffff1673ffffffffffffffffffffffffffffffffffffffff1673ffffffffffffffffffffffffffffffffffffffff1681526020016004820154815260200160058201548152602001600682015481526020016007820160009054906101000a900460ff166004811115611024577f4e487b7100000000000000000000000000000000000000000000000000000000600052602160045260246000fd5b600481111561105c577f4e487b7100000000000000000000000000000000000000000000000000000000600052602160045260246000fd5b815250509050919050565b600073ffffffffffffffffffffffffffffffffffffffff16600283815481106110b9577f4e487b7100000000000000000000000000000000000000000000000000000000600052603260045260246000fd5b906000526020600020906008020160030160009054906101000a900473ffffffffffffffffffffffffffffffffffffffff1673ffffffffffffffffffffffffffffffffffffffff16141580156111a75750600073ffffffffffffffffffffffffffffffffffffffff166002838154811061115c577f4e487b7100000000000000000000000000000000000000000000000000000000600052603260045260246000fd5b906000526020600020906008020160020160009054906101000a900473ffffffffffffffffffffffffffffffffffffffff1673ffffffffffffffffffffffffffffffffffffffff1614155b801561124b5750600073ffffffffffffffffffffffffffffffffffffffff1660028381548110611200577f4e487b7100000000000000000000000000000000000000000000000000000000600052603260045260246000fd5b906000526020600020906008020160010160009054906101000a900473ffffffffffffffffffffffffffffffffffffffff1673ffffffffffffffffffffffffffffffffffffffff1614155b61128a576040517f08c379a0000000000000000000000000000000000000000000000000000000008152600401611281906136e9565b60405180910390fd5b611293826122f1565b61129c57600080fd5b600260048111156112d6577f4e487b7100000000000000000000000000000000000000000000000000000000600052602160045260246000fd5b60028381548110611310577f4e487b7100000000000000000000000000000000000000000000000000000000600052603260045260246000fd5b906000526020600020906008020160070160009054906101000a900460ff166004811115611367577f4e487b7100000000000000000000000000000000000000000000000000000000600052602160045260246000fd5b146113a7576040517f08c379a000000000000000000000000000000000000000000000000000000000815260040161139e906137e9565b60405180910390fd5b600282815481106113e1577f4e487b7100000000000000000000000000000000000000000000000000000000600052603260045260246000fd5b906000526020600020906008020160030160009054906101000a900473ffffffffffffffffffffffffffffffffffffffff1673ffffffffffffffffffffffffffffffffffffffff163373ffffffffffffffffffffffffffffffffffffffff1614611480576040517f08c379a0000000000000000000000000000000000000000000000000000000008152600401611477906136a9565b60405180910390fd5b600282815481106114ba577f4e487b7100000000000000000000000000000000000000000000000000000000600052603260045260246000fd5b90600052602060002090600802016004015481111561150e576040517f08c379a000000000000000000000000000000000000000000000000000000000815260040161150590613649565b60405180910390fd5b60028281548110611548577f4e487b7100000000000000000000000000000000000000000000000000000000600052603260045260246000fd5b90600052602060002090600802016005015481111561159c576040517f08c379a000000000000000000000000000000000000000000000000000000000815260040161159390613809565b60405180910390fd5b600081600284815481106115d9577f4e487b7100000000000000000000000000000000000000000000000000000000600052603260045260246000fd5b9060005260206000209060080201600501546115f59190613999565b905060008060009054906101000a900473ffffffffffffffffffffffffffffffffffffffff1673ffffffffffffffffffffffffffffffffffffffff1663a9059cbb60028681548110611670577f4e487b7100000000000000000000000000000000000000000000000000000000600052603260045260246000fd5b906000526020600020906008020160020160009054906101000a900473ffffffffffffffffffffffffffffffffffffffff16856040518363ffffffff1660e01b81526004016116c09291906135aa565b602060405180830381600087803b1580156116da57600080fd5b505af11580156116ee573d6000803e3d6000fd5b505050506040513d601f19601f820116820180604052508101906117129190612fd8565b905080611754576040517f08c379a000000000000000000000000000000000000000000000000000000000815260040161174b90613709565b60405180910390fd5b826002858154811061178f577f4e487b7100000000000000000000000000000000000000000000000000000000600052603260045260246000fd5b906000526020600020906008020160050160008282546117af9190613999565b9250508190555060008060009054906101000a900473ffffffffffffffffffffffffffffffffffffffff1673ffffffffffffffffffffffffffffffffffffffff1663a9059cbb6002878154811061182f577f4e487b7100000000000000000000000000000000000000000000000000000000600052603260045260246000fd5b906000526020600020906008020160010160009054906101000a900473ffffffffffffffffffffffffffffffffffffffff16856040518363ffffffff1660e01b815260040161187f9291906135aa565b602060405180830381600087803b15801561189957600080fd5b505af11580156118ad573d6000803e3d6000fd5b505050506040513d601f19601f820116820180604052508101906118d19190612fd8565b905080611913576040517f08c379a000000000000000000000000000000000000000000000000000000000815260040161190a90613609565b60405180910390fd5b826002868154811061194e577f4e487b7100000000000000000000000000000000000000000000000000000000600052603260045260246000fd5b9060005260206000209060080201600501600082825461196e9190613999565b925050819055506003600286815481106119b1577f4e487b7100000000000000000000000000000000000000000000000000000000600052603260045260246000fd5b906000526020600020906008020160070160006101000a81548160ff02191690836004811115611a0a577f4e487b7100000000000000000000000000000000000000000000000000000000600052602160045260246000fd5b021790555083857f6cbfbb9b98ba7bb20bf4e76a5755fce5428cbeb7fdd7cd433fd3d63062476b8060405160405180910390a35050505050565b60036020528160005260406000206020528060005260406000206000915091509054906101000a900460ff1681565b60046020528160005260406000208160038110611a8f57600080fd5b016000915091509054906101000a900473ffffffffffffffffffffffffffffffffffffffff1681565b600080600090505b60046000848152602001908152602001600020506003811015611b9a573373ffffffffffffffffffffffffffffffffffffffff16600460008581526020019081526020016000208260038110611b3f577f4e487b7100000000000000000000000000000000000000000000000000000000600052603260045260246000fd5b0160009054906101000a900473ffffffffffffffffffffffffffffffffffffffff1673ffffffffffffffffffffffffffffffffffffffff161415611b87576001915050611ba0565b8080611b9290613a3a565b915050611ac0565b50600090505b919050565b600160009054906101000a900473ffffffffffffffffffffffffffffffffffffffff1681565b60028181548110611bdb57600080fd5b90600052602060002090600802016000915090508060000160009054906101000a900473ffffffffffffffffffffffffffffffffffffffff16908060010160009054906101000a900473ffffffffffffffffffffffffffffffffffffffff16908060020160009054906101000a900473ffffffffffffffffffffffffffffffffffffffff16908060030160009054906101000a900473ffffffffffffffffffffffffffffffffffffffff16908060040154908060050154908060060154908060070160009054906101000a900460ff16905088565b600381565b60006004811115611cef577f4e487b7100000000000000000000000000000000000000000000000000000000600052602160045260246000fd5b60028281548110611d29577f4e487b7100000000000000000000000000000000000000000000000000000000600052603260045260246000fd5b906000526020600020906008020160070160009054906101000a900460ff166004811115611d80577f4e487b7100000000000000000000000000000000000000000000000000000000600052602160045260246000fd5b14611dc0576040517f08c379a0000000000000000000000000000000000000000000000000000000008152600401611db7906136c9565b60405180910390fd5b611dc981611ab8565b611e08576040517f08c379a0000000000000000000000000000000000000000000000000000000008152600401611dff90613629565b60405180910390fd5b600360003373ffffffffffffffffffffffffffffffffffffffff1673ffffffffffffffffffffffffffffffffffffffff168152602001908152602001600020600082815260200190815260200160002060009054906101000a900460ff1615611ea6576040517f08c379a0000000000000000000000000000000000000000000000000000000008152600401611e9d90613829565b60405180910390fd5b6001600360003373ffffffffffffffffffffffffffffffffffffffff1673ffffffffffffffffffffffffffffffffffffffff168152602001908152602001600020600083815260200190815260200160002060006101000a81548160ff02191690831515021790555060011515611f1c826122f1565b1515141561200057600160028281548110611f60577f4e487b7100000000000000000000000000000000000000000000000000000000600052603260045260246000fd5b906000526020600020906008020160070160006101000a81548160ff02191690836004811115611fb9577f4e487b7100000000000000000000000000000000000000000000000000000000600052602160045260246000fd5b021790555080604051611fcb906134c5565b60405180910390207fe0c44502711e5733b02912b3499200d8d2ba04ff5f45dd23b2939a2a28ad947560405160405180910390a35b803373ffffffffffffffffffffffffffffffffffffffff167f75f970133b033e8f79b5f5ef45b5cabb4fb363a6ae644b8c4bd37f942050fcaa60405160405180910390a350565b60006004811115612081577f4e487b7100000000000000000000000000000000000000000000000000000000600052602160045260246000fd5b600282815481106120bb577f4e487b7100000000000000000000000000000000000000000000000000000000600052603260045260246000fd5b906000526020600020906008020160070160009054906101000a900460ff166004811115612112577f4e487b7100000000000000000000000000000000000000000000000000000000600052602160045260246000fd5b14612152576040517f08c379a0000000000000000000000000000000000000000000000000000000008152600401612149906137a9565b60405180910390fd5b61215b81611ab8565b61219a576040517f08c379a000000000000000000000000000000000000000000000000000000000815260040161219190613769565b60405180910390fd5b600360003373ffffffffffffffffffffffffffffffffffffffff1673ffffffffffffffffffffffffffffffffffffffff168152602001908152602001600020600082815260200190815260200160002060009054906101000a900460ff16612237576040517f08c379a000000000000000000000000000000000000000000000000000000000815260040161222e90613669565b60405180910390fd5b6000600360003373ffffffffffffffffffffffffffffffffffffffff1673ffffffffffffffffffffffffffffffffffffffff168152602001908152602001600020600083815260200190815260200160002060006101000a81548160ff0219169083151502179055503373ffffffffffffffffffffffffffffffffffffffff167f71575122610a111ac75d9cc0e0b6fcb4852b1e71ed64744b9aad1c9984584d84826040516122e69190613885565b60405180910390a250565b600080600090505b60046000848152602001908152602001600020506003811015612409576000151560036000600460008781526020019081526020016000208460038110612369577f4e487b7100000000000000000000000000000000000000000000000000000000600052603260045260246000fd5b0160009054906101000a900473ffffffffffffffffffffffffffffffffffffffff1673ffffffffffffffffffffffffffffffffffffffff1673ffffffffffffffffffffffffffffffffffffffff168152602001908152602001600020600085815260200190815260200160002060009054906101000a900460ff16151514156123f657600091505061240f565b808061240190613a3a565b9150506122f9565b50600190505b919050565b61241c612d05565b612424612d05565b600080600090505b6004600086815260200190815260200160002050600381101561261e57600115156003600060046000898152602001908152602001600020846003811061249c577f4e487b7100000000000000000000000000000000000000000000000000000000600052603260045260246000fd5b0160009054906101000a900473ffffffffffffffffffffffffffffffffffffffff1673ffffffffffffffffffffffffffffffffffffffff1673ffffffffffffffffffffffffffffffffffffffff168152602001908152602001600020600087815260200190815260200160002060009054906101000a900460ff161515141561260b5760046000868152602001908152602001600020816003811061256a577f4e487b7100000000000000000000000000000000000000000000000000000000600052603260045260246000fd5b0160009054906101000a900473ffffffffffffffffffffffffffffffffffffffff168383600381106125c5577f4e487b7100000000000000000000000000000000000000000000000000000000600052603260045260246000fd5b602002019073ffffffffffffffffffffffffffffffffffffffff16908173ffffffffffffffffffffffffffffffffffffffff1681525050818061260790613a3a565b9250505b808061261690613a3a565b91505061242c565b508192505050919050565b60028181548110612663577f4e487b7100000000000000000000000000000000000000000000000000000000600052603260045260246000fd5b906000526020600020906008020160000160009054906101000a900473ffffffffffffffffffffffffffffffffffffffff1673ffffffffffffffffffffffffffffffffffffffff163373ffffffffffffffffffffffffffffffffffffffff1614612702576040517f08c379a00000000000000000000000000000000000000000000000000000000081526004016126f9906137c9565b60405180910390fd5b6000600481111561273c577f4e487b7100000000000000000000000000000000000000000000000000000000600052602160045260246000fd5b60028281548110612776577f4e487b7100000000000000000000000000000000000000000000000000000000600052603260045260246000fd5b906000526020600020906008020160070160009054906101000a900460ff1660048111156127cd577f4e487b7100000000000000000000000000000000000000000000000000000000600052602160045260246000fd5b1461280d576040517f08c379a000000000000000000000000000000000000000000000000000000000815260040161280490613749565b60405180910390fd5b600460028281548110612849577f4e487b7100000000000000000000000000000000000000000000000000000000600052603260045260246000fd5b906000526020600020906008020160070160006101000a81548160ff021916908360048111156128a2577f4e487b7100000000000000000000000000000000000000000000000000000000600052602160045260246000fd5b02179055506000600360003373ffffffffffffffffffffffffffffffffffffffff1673ffffffffffffffffffffffffffffffffffffffff168152602001908152602001600020600083815260200190815260200160002060006101000a81548160ff021916908315150217905550803373ffffffffffffffffffffffffffffffffffffffff167f1a747ac251a4cd2568f755ceb868a0bbf4236420c6d13b0d93f882a2f4581d3460405160405180910390a350565b6000600280549050905060006040518061010001604052803373ffffffffffffffffffffffffffffffffffffffff1681526020018773ffffffffffffffffffffffffffffffffffffffff1681526020018673ffffffffffffffffffffffffffffffffffffffff1681526020018573ffffffffffffffffffffffffffffffffffffffff1681526020018481526020016000815260200183815260200160006004811115612a2c577f4e487b7100000000000000000000000000000000000000000000000000000000600052602160045260246000fd5b8152509050600281908060018154018082558091505060019003906000526020600020906008020160009091909190915060008201518160000160006101000a81548173ffffffffffffffffffffffffffffffffffffffff021916908373ffffffffffffffffffffffffffffffffffffffff16021790555060208201518160010160006101000a81548173ffffffffffffffffffffffffffffffffffffffff021916908373ffffffffffffffffffffffffffffffffffffffff16021790555060408201518160020160006101000a81548173ffffffffffffffffffffffffffffffffffffffff021916908373ffffffffffffffffffffffffffffffffffffffff16021790555060608201518160030160006101000a81548173ffffffffffffffffffffffffffffffffffffffff021916908373ffffffffffffffffffffffffffffffffffffffff1602179055506080820151816004015560a0820151816005015560c0820151816006015560e08201518160070160006101000a81548160ff02191690836004811115612be8577f4e487b7100000000000000000000000000000000000000000000000000000000600052602160045260246000fd5b0217905550505060405180606001604052808773ffffffffffffffffffffffffffffffffffffffff1673ffffffffffffffffffffffffffffffffffffffff1681526020018673ffffffffffffffffffffffffffffffffffffffff1673ffffffffffffffffffffffffffffffffffffffff1681526020018573ffffffffffffffffffffffffffffffffffffffff1673ffffffffffffffffffffffffffffffffffffffff1681525060046000848152602001908152602001600020906003612caf929190612dfc565b50813373ffffffffffffffffffffffffffffffffffffffff167fb514ac308e5e158c1328df7c7968349ea9b1f70eaba3470fbfbabfe6fe1bd5c660405160405180910390a3612cfd82611cb5565b505050505050565b6040518060600160405280600390602082028036833780820191505090505090565b604051806101000160405280600073ffffffffffffffffffffffffffffffffffffffff168152602001600073ffffffffffffffffffffffffffffffffffffffff168152602001600073ffffffffffffffffffffffffffffffffffffffff168152602001600073ffffffffffffffffffffffffffffffffffffffff16815260200160008152602001600081526020016000815260200160006004811115612df6577f4e487b7100000000000000000000000000000000000000000000000000000000600052602160045260246000fd5b81525090565b8260038101928215612e68579160200282015b82811115612e675782518260006101000a81548173ffffffffffffffffffffffffffffffffffffffff021916908373ffffffffffffffffffffffffffffffffffffffff16021790555091602001919060010190612e0f565b5b509050612e759190612e79565b5090565b5b80821115612e92576000816000905550600101612e7a565b5090565b600081359050612ea581613fcb565b92915050565b600081519050612eba81613fe2565b92915050565b600081359050612ecf81613ff9565b92915050565b600081519050612ee481613ff9565b92915050565b60008060008060808587031215612f0057600080fd5b6000612f0e87828801612e96565b9450506020612f1f87828801612e96565b9350506040612f3087828801612e96565b9250506060612f4187828801612ec0565b91505092959194509250565b60008060408385031215612f6057600080fd5b6000612f6e85828601612e96565b9250506020612f7f85828601612ec0565b9150509250929050565b600080600060608486031215612f9e57600080fd5b6000612fac86828701612e96565b9350506020612fbd86828701612ec0565b9250506040612fce86828701612ec0565b9150509250925092565b600060208284031215612fea57600080fd5b6000612ff884828501612eab565b91505092915050565b60006020828403121561301357600080fd5b600061302184828501612ec0565b91505092915050565b60006020828403121561303c57600080fd5b600061304a84828501612ed5565b91505092915050565b6000806040838503121561306657600080fd5b600061307485828601612ec0565b925050602061308585828601612ec0565b9150509250929050565b600061309b83836130a7565b60208301905092915050565b6130b0816139cd565b82525050565b6130bf816139cd565b82525050565b6130ce816138aa565b6130d881846138c2565b92506130e3826138a0565b8060005b838110156131145781516130fb878261308f565b9650613106836138b5565b9250506001810190506130e7565b505050505050565b613125816139df565b82525050565b61313481613a28565b82525050565b61314381613a28565b82525050565b6000613156601c836138cd565b915061316182613ae1565b602082019050919050565b6000613179602d836138cd565b915061318482613b0a565b604082019050919050565b600061319c602a836138cd565b91506131a782613b59565b604082019050919050565b60006131bf6022836138cd565b91506131ca82613ba8565b604082019050919050565b60006131e26012836138de565b91506131ed82613bf7565b601282019050919050565b6000613205602d836138cd565b915061321082613c20565b604082019050919050565b60006132286018836138cd565b915061323382613c6f565b602082019050919050565b600061324b6026836138cd565b915061325682613c98565b604082019050919050565b600061326e600f836138cd565b915061327982613ce7565b602082019050919050565b6000613291601e836138cd565b915061329c82613d10565b602082019050919050565b60006132b46025836138cd565b91506132bf82613d39565b604082019050919050565b60006132d76034836138cd565b91506132e282613d88565b604082019050919050565b60006132fa6021836138cd565b915061330582613dd7565b604082019050919050565b600061331d6013836138cd565b915061332882613e26565b602082019050919050565b60006133406033836138cd565b915061334b82613e4f565b604082019050919050565b60006133636023836138cd565b915061336e82613e9e565b604082019050919050565b6000613386601b836138cd565b915061339182613eed565b602082019050919050565b60006133a9601c836138cd565b91506133b482613f16565b602082019050919050565b60006133cc6015836138cd565b91506133d782613f3f565b602082019050919050565b60006133ef602b836138cd565b91506133fa82613f68565b604082019050919050565b6101008201600082015161341c60008501826130a7565b50602082015161342f60208501826130a7565b50604082015161344260408501826130a7565b50606082015161345560608501826130a7565b50608082015161346860808501826134a7565b5060a082015161347b60a08501826134a7565b5060c082015161348e60c08501826134a7565b5060e08201516134a160e085018261312b565b50505050565b6134b081613a1e565b82525050565b6134bf81613a1e565b82525050565b60006134d0826131d5565b9150819050919050565b60006020820190506134ef60008301846130b6565b92915050565b60006101008201905061350b600083018b6130b6565b613518602083018a6130b6565b61352560408301896130b6565b61353260608301886130b6565b61353f60808301876134b6565b61354c60a08301866134b6565b61355960c08301856134b6565b61356660e083018461313a565b9998505050505050505050565b600060608201905061358860008301866130b6565b61359560208301856130b6565b6135a260408301846134b6565b949350505050565b60006040820190506135bf60008301856130b6565b6135cc60208301846134b6565b9392505050565b60006060820190506135e860008301846130c5565b92915050565b6000602082019050613603600083018461311c565b92915050565b6000602082019050818103600083015261362281613149565b9050919050565b600060208201905081810360008301526136428161316c565b9050919050565b600060208201905081810360008301526136628161318f565b9050919050565b60006020820190508181036000830152613682816131b2565b9050919050565b600060208201905081810360008301526136a2816131f8565b9050919050565b600060208201905081810360008301526136c28161321b565b9050919050565b600060208201905081810360008301526136e28161323e565b9050919050565b6000602082019050818103600083015261370281613261565b9050919050565b6000602082019050818103600083015261372281613284565b9050919050565b60006020820190508181036000830152613742816132a7565b9050919050565b60006020820190508181036000830152613762816132ca565b9050919050565b60006020820190508181036000830152613782816132ed565b9050919050565b600060208201905081810360008301526137a281613310565b9050919050565b600060208201905081810360008301526137c281613333565b9050919050565b600060208201905081810360008301526137e281613356565b9050919050565b6000602082019050818103600083015261380281613379565b9050919050565b600060208201905081810360008301526138228161339c565b9050919050565b60006020820190508181036000830152613842816133bf565b9050919050565b60006020820190508181036000830152613862816133e2565b9050919050565b60006101008201905061387f6000830184613405565b92915050565b600060208201905061389a60008301846134b6565b92915050565b6000819050919050565b600060039050919050565b6000602082019050919050565b600081905092915050565b600082825260208201905092915050565b600081905092915050565b60006138f482613a1e565b91506138ff83613a1e565b9250827fffffffffffffffffffffffffffffffffffffffffffffffffffffffffffffffff0382111561393457613933613a83565b5b828201905092915050565b600061394a82613a1e565b915061395583613a1e565b9250817fffffffffffffffffffffffffffffffffffffffffffffffffffffffffffffffff048311821515161561398e5761398d613a83565b5b828202905092915050565b60006139a482613a1e565b91506139af83613a1e565b9250828210156139c2576139c1613a83565b5b828203905092915050565b60006139d8826139fe565b9050919050565b60008115159050919050565b60008190506139f982613fb7565b919050565b600073ffffffffffffffffffffffffffffffffffffffff82169050919050565b6000819050919050565b6000613a33826139eb565b9050919050565b6000613a4582613a1e565b91507fffffffffffffffffffffffffffffffffffffffffffffffffffffffffffffffff821415613a7857613a77613a83565b5b600182019050919050565b7f4e487b7100000000000000000000000000000000000000000000000000000000600052601160045260246000fd5b7f4e487b7100000000000000000000000000000000000000000000000000000000600052602160045260246000fd5b7f5472616e7366657220746f206465706f7369746f72206661696c656400000000600082015250565b7f4f6e6c7920612070617274792063616e20636f6e73656e7420746f206120707260008201527f6f706f73656420657363726f7700000000000000000000000000000000000000602082015250565b7f417070726f76656420616d6f756e742067726561746572207468616e2065736360008201527f726f7720616d6f756e7400000000000000000000000000000000000000000000602082015250565b7f4e6f206561726c69657220636f6e73656e7420746f206265207769746864726160008201527f776e000000000000000000000000000000000000000000000000000000000000602082015250565b7f416c6c206861766520636f6e73656e7465640000000000000000000000000000600082015250565b7f4465706f736974206578636565647320657363726f7720616d6f756e7420627960008201527f206d6f7265207468616e20352500000000000000000000000000000000000000602082015250565b7f4f6e6c7920617262697465722063616e20617070726f76650000000000000000600082015250565b7f457363726f77206e6f74206f72206e6f206c6f6e67657220757020666f72206360008201527f6f6e73656e740000000000000000000000000000000000000000000000000000602082015250565b7f61646472657373206c61636b696e670000000000000000000000000000000000600082015250565b7f5472616e7366657220746f2062656e6566696369617279206661696c65640000600082015250565b7f6e6f206164647265737320666f722062656e6566696369617279206f7220617260008201527f6269746572000000000000000000000000000000000000000000000000000000602082015250565b7f50726f706f73616c2063616e6e6f742062652063616e63656c6c65642061667460008201527f657220616c6c206861766520617070726f766564000000000000000000000000602082015250565b7f4f6e6c7920612070617274792063616e20776974686472617720636f6e73656e60008201527f7400000000000000000000000000000000000000000000000000000000000000602082015250565b7f7472616e7366657246726f6d206661696c656400000000000000000000000000600082015250565b7f436f6e73656e742063616e6e6f742062652077697468647261776e206166746560008201527f7220616c6c206861766520617070726f76656400000000000000000000000000602082015250565b7f4f6e6c792070726f706f7365722063616e2077697468647261772070726f706f60008201527f73616c0000000000000000000000000000000000000000000000000000000000602082015250565b7f457363726f77206d7573742062652066756c6c792066756e6465640000000000600082015250565b7f496e73756666696369656e742066756e6473206465706f736974656400000000600082015250565b7f436f6e73656e7420616c726561647920676976656e0000000000000000000000600082015250565b7f457363726f77206e6f7420617070726f766564206f7220616c7265616479206660008201527f756c6c792066756e646564000000000000000000000000000000000000000000602082015250565b60058110613fc857613fc7613ab2565b5b50565b613fd4816139cd565b8114613fdf57600080fd5b50565b613feb816139df565b8114613ff657600080fd5b50565b61400281613a1e565b811461400d57600080fd5b5056fea26469706673582212205b40e2b0a8d41dd8ad6000c6be0e5a9e29130acb63d66f2ed66bfd817e2cb19c64736f6c63430008040033",
  "linkReferences": {},
  "deployedLinkReferences": {}
}